:0300000002780083
:10780000787FE4F6D8FD75816302780C750A797586
:107810000BA0750C80750D00E4F508F509C3E509AA
:107820009488E5089405501A050BE50BAE0A700222
:10783000050A12787B7002050C12788A70DF050841
:1078400080DB750A7F750B28750C87750D00E4F5D4
:1078500008F509C3E509948EE5089400501A050B54
:10786000E50BAE0A7002050A12787B7002050C1255
:10787000788A70DF050880DB0284BB14F5828E8372
:10788000E493FF050DE50DAC0C2214F5828C83EF1B
:06789000F00509E50922E4
:1079A000E4FDFCC3ED9FEC9E5016E4FBFA000BBB1C
:1079B00000010ABA05F7BB7BF40DBD00010C80E3A2
:1079C00022751A02E4F516F518F51F90C7D6E044A3
:1079D00008F07F327E00128000E054F7F090C7AECE
:1079E000741DF090C7AC7401F090C7A9741FF0909B
:1079F000C7AD7401F090C7AA741FF090C7811283BD
:107A00001890C78874C0F0A312831890C7DE740161
:107A1000F0A3F0E4A3F0A3F090C7ACE04402F09030
:107A2000C7DEE04402F090C7ADE04402F090C7DF4B
:107A3000E04402F090C7C774FFF022E51B70089085
:107A4000C7B5F012832C22E51BC39517AF17500260
:107A5000AF1BAD1EAC1DE4FEEEC39F501E0DEDAA84
:107A60000470010C14F5828A83E493FB74002EF5F4
:107A700082E434C7F583EBF00E80DD90C7B5EFF0FC
:107A8000251EF51EE4351DF51DC3E51B9FF51B22C4
:107A9000E490C701F090C700F0E51AB4030890C75E
:107AA000ECE070028036E51A64047037E51C247F30
:107AB00060141460132402702AE51630E10690C7A2
:107AC000007402F08016801490C7ECE030E7059057
:107AD000C7B6800390C7C6E090C700F090C7B574E2
:107AE00002F0221283332275172090C7EBE024FEA8
:107AF000602614603A24FA400221E324086002213F
:107B0000E7751D87751E0090C7EEE0C39412500400
:107B1000E0FF806A7F128066751D87751E1290C710
:107B2000EEE0C394205004E0FF80027F20804F905D
:107B3000C7EAE07017751D87751E8A90C7EEE0C30F
:107B400094045004E0FF80027F04803290C7EAE092
:107B500014C39402502DE0B40108751D87751E32C0
:107B60008006751D87751E5C851E82851D83E493C6
:107B7000FF90C7EEE0C39F5005E0FEFF80008F1B23
:107B800002809B1283332212832C2290C7E8E0F5F7
:107B90001C5460706CA3E0601524FB601424FD602D
:107BA0001714602F14604B24047054028147028024
:107BB000F0751A03E4F51822E51A24FC600E04702F
:107BC0005EE490C700F090C7B504F02290C700E5CE
:107BD00018802490C7EAE014600B047013751A0330
:107BE000E4F5188036751A04431601751801802BC8
:107BF000802D90C700E51FF090C7B57401F022807A
:107C00001EE51C5460FFBF201690C7EEE0600CE537
:107C10001C20E70790C7C574FFF02212832C2212A4
:107C200083332290C7A8E0B4101190C7AB7410F052
:107C3000751A02E4F518F51FF5162290C7A8E0247E
:107C4000FC602524FC602624FC603224F46035248A
:107C5000FC603A24FC604624FC604D24247058905B
:107C6000C7AB7401F00281EB90C7AB802C90C7AB1F
:107C70007404F0E4F51DF51EF51BF5172290C7AB53
:107C80007408F02290C7A97401F002809B90C7AAE3
:107C90007401F0E4F51B90C7B47402F02290C7A9F8
:107CA0007402F090C7B6F02290C7AA7402F075195A
:107CB0000190C7C774FFF0227410F0A37430F0A3D2
:107CC0007450F0A37470F0A37490F02290C7B47451
:107CD00002F02290C7B47411F022E4F50EE52060A2
:107CE00037E523AE227806C333CE33CED8F9FF7CF6
:107CF000C67D407B407A001284F90523E52370029B
:107D000005220521E490C680F0750E01E521640886
:107D100060028176F520817690C640E024FE6033D3
:107D200014605214601E1470028135147002815B5D
:107D300024056002817690C6807412F0E4A3F07589
:107D40000E02817690C641E0FF1284EB1284E3E4D8
:107D5000F6816F1284E3E66005E0FF1284EB128483
:107D6000E37601E075F008A4F52385F022E4F5211F
:107D7000752001816F90C641E0FFE522F522EFF505
:107D80002330FA33AE227803CEC313CE13D8F924AE
:107D900024F8E66005E4F50F8003750FFFE4F50EA7
:107DA0007480250EF582E434C6F583E50FF0050EE8
:107DB000E50EB440EB8019E523AE227806C333CE3E
:107DC00033CED8F9FF7CC67D807B407A0012855483
:107DD000750E408041750E01D2FB900023E0F460E7
:107DE0000890C6807401F0800E7E007F23E4FD12AF
:107DF0008542E490C680F0C2FB801B90C641E0B48F
:107E000001097401F5228523238003752200E49083
:107E1000C680F0750E01E50ED39400400690C7B7FA
:107E2000E50EF022E4FD74242DF8E4F6F50EF50FCE
:107E3000ED25E0758200F583C3E50E94025017E04E
:107E4000F4600874242DF87601800B050FE50F709F
:107E500002050EA380E20DBD40CC22C2AF12848485
:107E6000128021758E02E4F522F523F520F51930F4
:107E7000C4FDC2C4128283E51960F412833AE4F5AA
:107E80001980EC90C641E02424F82212857C8FFAF8
:107E900020FCFDC2FD758E02228C108D118A128B82
:107EA0001312857C8E148F15E5131513AE12700214
:107EB00015124E60270511E511AE10700205101461
:107EC000F5828E83E0FF0515E515AC1470020514EC
:107ED00014F5828C83EFF030FCCE80FBC2FD758EF2
:107EE000022212857C8F828E83EDF020FCFDC2FD84
:107EF000758E02228A108B11E5111511AA107002DD
:107F000015104A60168F828E83E08D828C83F00F6D
:107F1000BF00010E0DBD00010C80DD22758E0175C4
:107F2000FAAA75FA55D2FD2212010002FFFFFF20C6
:107F300015190101010001020001090220000101DF
:107F400002E0320904000002FF00FF000705810281
:107F5000400006070501024000062A034E006F009C
:107F600072006400690063002000530065006D002A
:107F7000690063006F006E006400750063007400A8
:107F80006F0072002E036E00520046003200340073
:107F90004C005500310050002D00460033003200E7
:107FA000200042004F004F00540020004C004400CD
:067FB00052000403090465
:00000001FF
